:100000000C9462000C948A000C948A000C948A0070
:100010000C948A000C948A000C948A000C948A0038
:100020000C948A000C948A000C948A000C948A0028
:100030000C948A000C948A000C948A000C948A0018
:100040000C94FF040C948A000C94CD040C94A70427
:100050000C948A000C948A000C948A000C948A00F8
:100060000C9449050C948A0000000000230026002F
:10007000290000000008000201000003040700003E
:1000800000000000000000000000250028002B00F8
:1000900000000000240027002A00040404040404D3
:1000A0000404020202020202030303030303010227
:1000B00004081020408001020408102001020408F6
:1000C0001020680611241FBECFEFD8E0DEBFCDBFE1
:1000D00011E0A0E0B1E0EAEEF2E102C005900D927D
:1000E000AA3AB107D9F723E0AAEAB1E001C01D920C
:1000F000AE32B207E1F710E0C2E6D0E004C02197CB
:10010000FE010E946D09C136D107C9F70E94B206EF
:100110000C9473090C940000CF93DF9390E0FC01E2
:10012000E255FF4F249186569F4FFC01849188230E
:10013000C1F090E0880F991FFC01E057FF4FC59177
:10014000D491FC01EA57FF4FA591B4919FB7F89461
:100150003881822F809583238883EC91E22BEC9366
:100160009FBFDF91CF91089508950895AF92BF92F8
:10017000CF92DF92EF92FF920F931F93CF93DF9373
:100180006C017B018B01040F151FEB015E01AE18A2
:10019000BF08C017D10759F06991D601ED91FC91C4
:1001A0000190F081E02DC6010995892B79F7C501F1
:1001B000DF91CF911F910F91FF90EF90DF90CF9043
:1001C000BF90AF900895FC01538D448D252F30E0F2
:1001D000842F90E0821B930B541710F0CF96089554
:1001E00001970895FC01918D828D981761F0A28D81
:1001F000AE0FBF2FB11D5D968C91928D9F5F9F7347
:10020000928F90E008958FEF9FEF0895FC01918DFC
:10021000828D981731F0828DE80FF11D858D90E069
:1002200008958FEF9FEF0895FC01918D228D892F06
:1002300090E0805C9F4F821B91098F7399270895EE
:1002400089E792E00E94140121E0892B09F420E063
:10025000822F089580E090E0892B29F00E942001F0
:1002600081110C9400000895FC01A48DA80FB92FF2
:10027000B11DA35ABF4F2C91848D90E001968F73CE
:100280009927848FA689B7892C93A089B1898C91ED
:10029000837080648C93938D848D981306C002883C
:1002A000F389E02D80818F7D80830895EF92FF9206
:1002B0000F931F93CF93DF93EC0181E0888F9B8D89
:1002C0008C8D98131AC0E889F989808185FF15C043
:1002D0009FB7F894EE89FF896083E889F989808166
:1002E0008370806480839FBF81E090E0DF91CF9135
:1002F0001F910F91FF90EF900895F62E0B8D10E057
:100300000F5F1F4F0F731127E02E8C8D8E110CC0C5
:100310000FB607FCFACFE889F989808185FFF5CF10
:10032000CE010E943401F1CFEB8DEC0FFD2FF11DBA
:10033000E35AFF4FF0829FB7F8940B8FEA89FB894D
:1003400080818062CFCFCF93DF93EC01888D8823AB
:10035000B9F0AA89BB89E889F9898C9185FD03C028
:10036000808186FD0DC00FB607FCF7CF8C9185FF0D
:10037000F2CF808185FFEDCFCE010E943401E9CF1D
:10038000DF91CF910895833081F028F4813099F086
:100390008230A9F008958730A9F08830C9F0843000
:1003A000B1F4809180008F7D03C0809180008F77B1
:1003B00080938000089584B58F7784BD089584B5B7
:1003C0008F7DFBCF8091B0008F778093B000089530
:1003D0008091B0008F7DF9CFCF93DF93282F30E04D
:1003E000F901EE58FF4F8491F901E255FF4FD49186
:1003F000F901E656FF4FC491CC2389F081110E9488
:10040000C301EC2FF0E0EE0FFF1FEA57FF4FA5915D
:10041000B4918FB7F894EC91DE2BDC938FBFDF9112
:10042000CF910895CF93DF93282F30E0F901EE5854
:10043000FF4F8491F901E255FF4FD491F901E6563F
:10044000FF4FC491CC23A1F081110E94C301EC2F76
:10045000F0E0EE0FFF1FE859FF4FA591B491EC912A
:10046000ED2381E090E009F480E0DF91CF910895E1
:1004700080E090E0FACF3FB7F894809158029091D5
:100480005902A0915A02B0915B0226B5A89B05C003
:100490002F3F19F00196A11DB11D3FBFBA2FA92F03
:1004A000982F8827BC01CD01620F711D811D911D00
:1004B00042E0660F771F881F991F4A95D1F708956C
:1004C0008F929F92AF92BF92CF92DF92EF92FF9264
:1004D0004B015C010E943B026B017C010E943B02CC
:1004E0006C197D098E099F09683E7340810591054D
:1004F000A8F321E0821A9108A108B10888EEC80E7D
:1005000083E0D81EE11CF11C81149104A104B10404
:1005100029F7FF90EF90DF90CF90BF90AF909F9022
:100520008F900895089585ED8093BC008091BC0064
:1005300084FDFCCF1092620208952091EA01260FFB
:100540003327331F21323105ECF420916202FC0184
:1005500090E080E0243069F082E00895A091EA0103
:100560002191AC0146535E4FA40FB52FB11D2C93C2
:100570000196861798F38091EA01680F6093EA016B
:1005800080E0089581E008950895E09166028091E9
:100590006502E81730F4F0E0E655FE4F808190E008
:1005A00008958FEF9FEF0895909166028091650204
:1005B0002FEF3FEF981748F4E92FF0E0E655FE4F94
:1005C000208130E09F5F90936602C9010895809179
:1005D000650290916602891B990B0895CF92DF9274
:1005E000EF92FF920F931F93CF93DF937C01CB0188
:1005F0008A0120913102222389F0EB016B01C40EA4
:10060000D51ECC15DD0569F06991D701ED91FC91FE
:100610000190F081E02DC7010995F3CF642F0E946E
:100620009D02C801DF91CF911F910F91FF90EF9034
:10063000DF90CF900895CF93DF931F92CDB7DEB7B1
:100640006983209131022223F9F020916302203244
:1006500058F021E030E0FC013383228390E080E019
:100660000F90DF91CF91089580916402E82FF0E020
:10067000EE5CFD4F998190838F5F8093640280933D
:10068000630281E090E0ECCF61E0CE0101960E9430
:100690009D02F7CFCF93FC01C48121E0209331026A
:1006A000C093520210926402109263028385682BF9
:1006B00086E193E00E941B0390916302913208F05F
:1006C0003FC0809162028111FCCF82E08093620280
:1006D00081E0809361028FEF8093300210922F02AD
:1006E00090932E02A2E3B2E0EEE0F2E080E09813F5
:1006F0002FC010920D0280910D02CC0FC82BC09319
:100700000D0280916002813039F510926002809173
:100710000D028093BB008091BC0083FDF8CF85EC77
:100720008093BC00809162028230E1F380913002BC
:100730008F3F31F080913002803211F08091300291
:10074000109264021092630210923102CF910895C8
:100750002D9121938F5FCBCF85EEE2CF90E080E0AB
:1007600008950F931F93CF938C01C62F0E944A03C5
:100770006C2F6460C8010E944A036C2F6B7FC80114
:100780000E944A0383EC90E00197F1F7CF911F910B
:100790000F9108950F931F93CF93DF938C01D62F62
:1007A000C42F607F642B0E94B10380E1D89FB00109
:1007B00011246C2BC801DF91CF911F910F910C94E4
:1007C000B103CF93DF93CDB7DEB728970FB6F89478
:1007D000DEBF0FBECDBF98E0E0E0F1E0DE01119694
:1007E00001900D929A95E1F790912B03961708F4DA
:1007F0006FEF262F30E0220F331F41E050E04C0F07
:100800005D1F240F351FF9016081680F606840E0AB
:1008100082E293E028960FB6F894DEBF0FBECDBFFC
:10082000DF91CF910C94CA0341E00E94CA0381E09A
:1008300090E00895FB0101900020E9F73197AF01A6
:10084000461B570BDC01ED91FC910280F381E02DFA
:1008500009948F929F92AF92BF92EF92FF920F9363
:100860001F93CF93DF93CDB7DEB7A1970FB6F89460
:10087000DEBF0FBECDBF7C01FA01CB0119A2223031
:1008800008F42AE08E010F5D1F4F822E912CB12CAF
:10089000A12CBF01A50194010E944B09F901CA01D5
:1008A0006A300CF5605DD8016E938D01232B242BEB
:1008B000252B79F790E080E0109721F0BD01C7016A
:1008C0000E941A04A1960FB6F894DEBF0FBECDBFEA
:1008D000DF91CF911F910F91FF90EF90BF90AF905C
:1008E0009F908F900895695CDECFCF92DF92EF9258
:1008F000FF926C01990FEE08FF08F7FE18C041E067
:100900006DE282E293E00E94CA0344275527BA01B0
:100910004C195D096E097F092AE082E293E00E948A
:1009200029040196FF90EF90DF90CF9008952AE080
:10093000B701A60182E293E0FF90EF90DF90CF90A5
:100940000C942904BC0182E293E00C941A041F92D7
:100950000F920FB60F9211242F933F934F935F93F3
:100960006F937F938F939F93AF93BF93EF93FF9377
:1009700089E792E00E943401FF91EF91BF91AF911E
:100980009F918F917F916F915F914F913F912F91A7
:100990000F900FBE0F901F9018951F920F920FB6D9
:1009A0000F9211242F938F939F93EF93FF93E091D6
:1009B0008902F0918A028081E0918F02F091900289
:1009C00082FD1BC09081809192028F5F8F73209176
:1009D0009302821741F0E0919202F0E0E758FD4F58
:1009E000958F80939202FF91EF919F918F912F911C
:1009F0000F900FBE0F901F9018958081F4CF1F921B
:100A00000F920FB60F9211242F933F938F939F93C2
:100A1000AF93BF938091540290915502A0915602DA
:100A2000B09157023091530223E0230F2D3758F530
:100A30000196A11DB11D20935302809354029093FF
:100A40005502A0935602B09357028091580290919C
:100A50005902A0915A02B0915B020196A11DB11DED
:100A60008093580290935902A0935A02B0935B026C
:100A7000BF91AF919F918F913F912F910F900FBE9A
:100A80000F901F90189526E8230F0296A11DB11D07
:100A9000D2CF1F920F920FB60F9211242F933F9334
:100AA0004F935F936F937F938F939F93AF93BF9376
:100AB000EF93FF938091B900887F803609F44AC094
:100AC000F0F5883209F4A7C018F5803109F49BC00D
:100AD000B8F4882309F4F9C0883009F494C0FF9170
:100AE000EF91BF91AF919F918F917F916F915F91A6
:100AF0004F913F912F910F900FBE0F901F9018951F
:100B0000883109F488C0803251F78093300214C0D4
:100B1000803409F49DC040F48033B9F38833F9F68A
:100B20008093300285ECB0C0803509F485C08835EB
:100B300009F496C0883499F60E949302D0CF883980
:100B400009F48CC038F5883729F050F4883611F054
:100B5000803729F683E08093620210920C0257C01E
:100B6000883809F47BC0803919F0803809F0B7CF94
:100B700080910C02803208F071C0E0910C0281E09B
:100B80008E0F80930C028091BB00F0E0E451FE4F89
:100B900080833DC0803B39F0E0F4803A09F479C0AD
:100BA000883A09F09CCF84E0809362021092EB01B6
:100BB0001092EA01E0915E02F0915F020995809146
:100BC000EA0181110FC081E08093EA011092CA010D
:100BD00009C0803C09F4A6CF883C09F4A3CF883B28
:100BE00009F07DCFE091EB0181E08E0F8093EB0166
:100BF000F0E0E653FE4F80818093BB009091EB01C3
:100C00008091EA0129C080910D028093BB0085ECA0
:100C10008093BC0064CF90912F0280912E02981790
:100C200058F5E0912F0281E08E0F80932F02F0E0C3
:100C3000E25FFD4F8081E9CFE0912F0281E08E0FCE
:100C400080932F028091BB00F0E0E25FFD4F808334
:100C500090912F0280912E029817C8F285E8D8CF84
:100C6000E0912F0281E08E0F80932F028091BB00D4
:100C7000F0E0E25FFD4F80838091610281115CCFE3
:100C800081E08093600284EA8093BC00109262024B
:100C900026CF85EC8093BC001092620280910C02FA
:100CA000803230F4E0910C02F0E0E451FE4F10820B
:100CB00060910C0270E0E0915C02F0915D028CEEBC
:100CC00091E0099510920C020ACF1092300234CFB5
:100CD000E9E7F2E01382128288EE93E0A0E0B0E050
:100CE00084839583A683B7832CE031E0318320830E
:100CF00025EC30E03587248724EC30E037872687E1
:100D000020EC30E0318B208B21EC30E0338B228BD8
:100D100022EC30E0358B248B26EC30E0378B268BB1
:100D2000118E128E138E148EE6E1F3E0138212827E
:100D300084839583A683B7838EE191E0918380833A
:100D4000E2E2F3E01382128280E391E091838083F8
:100D50008FE3848384E1808784E08187128688E042
:100D600083870895789484B5826084BD84B581605A
:100D700084BD85B5826085BD85B5816085BD809166
:100D80006E00816080936E001092810080918100DE
:100D900082608093810080918100816080938100D6
:100DA000809180008160809380008091B100846098
:100DB0008093B1008091B00081608093B0008091F9
:100DC0007A00846080937A0080917A0082608093B8
:100DD0007A0080917A00816080937A0080917A0015
:100DE000806880937A001092C100E0918902F091AE
:100DF0008A0282E08083E0918502F091860210826F
:100E0000E0918702F091880280E180831092910244
:100E1000E0918D02F0918E0286E08083E0918B025A
:100E2000F0918C02808180618083E0918B02F0914F
:100E30008C02808188608083E0918B02F0918C022B
:100E4000808180688083E0918B02F0918C028081A8
:100E50008F7D808310926602109265021092640268
:100E6000109263021092620281E0809361021092FC
:100E7000600282E10E94EC0183E10E94EC0180911A
:100E8000B9008E7F8093B9008091B9008D7F8093E7
:100E9000B90088E48093B80085E48093BC0084EBBB
:100EA00090E090935F0280935E0285EB90E09093D8
:100EB0005D0280935C021092270380912B038230A5
:100EC00018F098E09093270390912C03992339F020
:100ED000813029F48091270384608093270362E3A3
:100EE00070E080E090E00E94600260912D0382E259
:100EF00093E00E944A0368EE73E080E090E00E9475
:100F0000600260E382E293E00E94B103CBE4D6E4A6
:100F1000CE010197F1F760E382E293E00E94B10312
:100F20002197F1F760E382E293E00E94B10383E549
:100F300092E00197F1F760E282E293E00E94B10350
:100F400060912703606240E082E293E00E94CA035E
:100F500084E08093280340E06CE082E293E00E940A
:100F6000CA0340E061E082E293E00E94CA03CBE35F
:100F7000DFE1CE010197F1F782E08093290340E0A1
:100F800066E082E293E00E94CA0340E062E082E20F
:100F900093E00E94CA032197F1F78CE08093B80098
:100FA00088E080932D0360E082E293E00E944A0390
:100FB0008CE00E948C008BE00E948C008AE00E94F2
:100FC0008C0089E00E948C0060E080E00E94E103D8
:100FD00088E391E00E94A20461E080E00E94E103C6
:100FE0008AE491E00E94A20464EC79E080E090E061
:100FF0000E94600260E080E00E94E1038DE591E0E4
:101000000E94A20461E080E00E94E1038FE691E08B
:101010000E94A20400E010E0FF24F3948CE00E9400
:101020001202892B21F4F0927402F0926D028BE08F
:101030000E941202892B11F4109274028AE00E941D
:101040001202892B11F410926D0289E00E941202A3
:10105000892B61F51092740210926D021092710248
:101060001092700210926F0210926E021092730230
:101070001092720210926A02109269021092680233
:101080001092670210926C0210926B0260E080E096
:101090000E94E10382E891E00E94A20461E080E006
:1010A0000E94E10383E991E00E94A2040E943B02B6
:1010B0008090750290907602A0907702B0907802AE
:1010C000681979098A099B09603177428105910580
:1010D00028F489288A288B2809F093C00E943B02B3
:1010E00060937502709376028093770290937802F2
:1010F0000E943B02AB01BC012AE089E792E00E941A
:10110000290464EA71E089E792E00E941A04809160
:1011100074028823C9F1C0917202D0917302C33660
:10112000D10509F08EC01092730210927202C09124
:101130007002D0917102CB33D10509F06EC01092CC
:1011400071021092700260E083E00E94E10387EA7E
:1011500091E00E94A204C0916E02D0916F0221968C
:10116000D0936F02C0936E0260E080E00E94E103C2
:101170002A9724F488EA91E00E94A20480916E02EA
:1011800090916F020E94750480916D028823C9F1CD
:10119000C0916B02D0916C02C336D10509F070C0CA
:1011A00010926C0210926B02C0916902D0916A0297
:1011B000CB33D10509F050C010926A021092690237
:1011C00061E083E00E94E10387EA91E00E94A204CB
:1011D000C0916702D09168022196D0936802C093B3
:1011E000670261E080E00E94E1032A9724F488EA24
:1011F00091E00E94A20480916702909168020E948F
:1012000075040115110509F409CF0E9420018823F6
:1012100009F404CF0E94000001CF2196D0937102FF
:10122000C093700260E083E00E94E1032A9724F4F7
:1012300088EA91E00E94A20480917002909171026C
:10124000A1CF2196D0937302C093720260E086E032
:101250000E94E103CE0196CF2196D0936A02C093FB
:10126000690261E083E00E94E1032A9724F488EA9E
:1012700091E00E94A2048091690290916A02BFCF1E
:101280002196D0936C02C0936B0261E086E00E94CD
:10129000E103CE01B4CFA1E21A2EAA1BBB1BFD01B4
:1012A0000DC0AA1FBB1FEE1FFF1FA217B307E40745
:1012B000F50720F0A21BB30BE40BF50B661F771F9D
:1012C000881F991F1A9469F760957095809590957D
:1012D0009B01AC01BD01CF010895EE0FFF1F0590EA
:0A12E000F491E02D0994F894FFCF7B
:1012EA000000400014005400000000005601B6003F
:1012FA00E300A3011401F2000601000000001B0331
:10130A00EE02AE03C402E702D402C50200000000E6
:10131A001404B600AE039202202020505245204405
:10132A00485A2053554E4156410020204D415254AF
:10133A00494E2043484C45424F5645430030303AC7
:10134A0030303A3030204C2E205052554420003054
:10135A00303A30303A303020502E20505255442006
:10136A00200030303A30303A3030204C2E20505263
:10137A0055440030303A30303A303020502E205028
:0A138A00525544000D0A00303000F7
:00000001FF
